{
  "contractName": "StudentDetails",
  "abi": [
    {
      "inputs": [],
      "name": "studentCount",
      "outputs": [
        {
          "internalType": "uint256",
          "name": "",
          "type": "uint256"
        }
      ],
      "stateMutability": "view",
      "type": "function",
      "constant": true
    },
    {
      "inputs": [
        {
          "internalType": "uint256",
          "name": "",
          "type": "uint256"
        }
      ],
      "name": "studentIDs",
      "outputs": [
        {
          "internalType": "uint256",
          "name": "",
          "type": "uint256"
        }
      ],
      "stateMutability": "view",
      "type": "function",
      "constant": true
    },
    {
      "inputs": [
        {
          "internalType": "uint256",
          "name": "",
          "type": "uint256"
        }
      ],
      "name": "students",
      "outputs": [
        {
          "internalType": "string",
          "name": "name",
          "type": "string"
        },
        {
          "internalType": "uint256",
          "name": "cid",
          "type": "uint256"
        },
        {
          "internalType": "uint256",
          "name": "totalPoints",
          "type": "uint256"
        },
        {
          "internalType": "string",
          "name": "course",
          "type": "string"
        }
      ],
      "stateMutability": "view",
      "type": "function",
      "constant": true
    },
    {
      "inputs": [
        {
          "internalType": "string",
          "name": "_name",
          "type": "string"
        },
        {
          "internalType": "uint256",
          "name": "_cid",
          "type": "uint256"
        },
        {
          "internalType": "string",
          "name": "_programName",
          "type": "string"
        },
        {
          "internalType": "string",
          "name": "_date",
          "type": "string"
        },
        {
          "internalType": "string",
          "name": "_course",
          "type": "string"
        }
      ],
      "name": "registerStudent",
      "outputs": [],
      "stateMutability": "nonpayable",
      "type": "function"
    },
    {
      "inputs": [
        {
          "internalType": "uint256",
          "name": "_cid",
          "type": "uint256"
        },
        {
          "internalType": "string",
          "name": "_programName",
          "type": "string"
        },
        {
          "internalType": "string",
          "name": "_date",
          "type": "string"
        }
      ],
      "name": "attendProgram",
      "outputs": [],
      "stateMutability": "nonpayable",
      "type": "function"
    },
    {
      "inputs": [
        {
          "internalType": "uint256",
          "name": "_cid",
          "type": "uint256"
        }
      ],
      "name": "getStudentDetails",
      "outputs": [
        {
          "internalType": "string",
          "name": "",
          "type": "string"
        },
        {
          "internalType": "uint256",
          "name": "",
          "type": "uint256"
        },
        {
          "internalType": "string[]",
          "name": "",
          "type": "string[]"
        },
        {
          "internalType": "string[]",
          "name": "",
          "type": "string[]"
        },
        {
          "internalType": "uint256",
          "name": "",
          "type": "uint256"
        },
        {
          "internalType": "string",
          "name": "",
          "type": "string"
        }
      ],
      "stateMutability": "view",
      "type": "function",
      "constant": true
    }
  ],
  "bytecode": "0x608060405234801561001057600080fd5b5061120e806100206000396000f3fe608060405234801561001057600080fd5b50600436106100625760003560e01c806306ead22e146100675780632ce349be1461009a57806348314639146100ca5780635da26dc6146100e657806386a9b36414610102578063e581f9ee14610137575b600080fd5b610081600480360381019061007c9190610be5565b610155565b6040516100919493929190610edc565b60405180910390f35b6100b460048036038101906100af9190610be5565b610295565b6040516100c19190610f6f565b60405180910390f35b6100e460048036038101906100df9190610b0e565b6102b9565b005b61010060048036038101906100fb9190610c0e565b6103b7565b005b61011c60048036038101906101179190610be5565b61052a565b60405161012e96959493929190610e5f565b60405180910390f35b61013f6109e8565b60405161014c9190610f6f565b60405180910390f35b6002602052806000526040600020600091509050806000018054610178906110a8565b80601f01602080910402602001604051908101604052809291908181526020018280546101a4906110a8565b80156101f15780601f106101c6576101008083540402835291602001916101f1565b820191906000526020600020905b8154815290600101906020018083116101d457829003601f168201915b505050505090806001015490806004015490806005018054610212906110a8565b80601f016020809104026020016040519081016040528092919081815260200182805461023e906110a8565b801561028b5780601f106102605761010080835404028352916020019161028b565b820191906000526020600020905b81548152906001019060200180831161026e57829003601f168201915b5050505050905084565b600181815481106102a557600080fd5b906000526020600020016000915090505481565b6000808154809291906102cb906110da565b91905055506000600260008681526020019081526020016000206001015414610329576040517f08c379a000000000000000000000000000000000000000000000000000000000815260040161032090610f4f565b60405180910390fd5b6000600260008681526020019081526020016000209050858160000190805190602001906103589291906109ee565b508481600101819055508181600501908051906020019061037a9291906109ee565b5060018590806001815401808255809150506001900390600052602060002001600090919091909150556103af8585856103b7565b505050505050565b600060026000858152602001908152602001600020905080600301836040516103e09190610e48565b908152602001604051809103902060009054906101000a900460ff161561043c576040517f08c379a000000000000000000000000000000000000000000000000000000000815260040161043390610f2f565b60405180910390fd5b600181600301846040516104509190610e48565b908152602001604051809103902060006101000a81548160ff02191690831515021790555060006040518060600160405280858152602001600181526020018481525090508160020181908060018154018082558091505060019003906000526020600020906003020160009091909190915060008201518160000190805190602001906104df9291906109ee565b506020820151816001015560408201518160020190805190602001906105069291906109ee565b50505081600401600081548092919061051e906110da565b91905055505050505050565b606060006060806000606060006002600089815260200190815260200160002090506000816002018054905067ffffffffffffffff811115610595577f4e487b7100000000000000000000000000000000000000000000000000000000600052604160045260246000fd5b6040519080825280602002602001820160405280156105c857816020015b60608152602001906001900390816105b35790505b5090506000826002018054905067ffffffffffffffff811115610614577f4e487b7100000000000000000000000000000000000000000000000000000000600052604160045260246000fd5b60405190808252806020026020018201604052801561064757816020015b60608152602001906001900390816106325790505b50905060005b83600201805490508110156108a357836002018181548110610698577f4e487b7100000000000000000000000000000000000000000000000000000000600052603260045260246000fd5b906000526020600020906003020160000180546106b4906110a8565b80601f01602080910402602001604051908101604052809291908181526020018280546106e0906110a8565b801561072d5780601f106107025761010080835404028352916020019161072d565b820191906000526020600020905b81548152906001019060200180831161071057829003601f168201915b505050505083828151811061076b577f4e487b7100000000000000000000000000000000000000000000000000000000600052603260045260246000fd5b60200260200101819052508360020181815481106107b2577f4e487b7100000000000000000000000000000000000000000000000000000000600052603260045260246000fd5b906000526020600020906003020160020180546107ce906110a8565b80601f01602080910402602001604051908101604052809291908181526020018280546107fa906110a8565b80156108475780601f1061081c57610100808354040283529160200191610847565b820191906000526020600020905b81548152906001019060200180831161082a57829003601f168201915b5050505050828281518110610885577f4e487b7100000000000000000000000000000000000000000000000000000000600052603260045260246000fd5b6020026020010181905250808061089b906110da565b91505061064d565b5082600001836001015483838660040154876005018580546108c4906110a8565b80601f01602080910402602001604051908101604052809291908181526020018280546108f0906110a8565b801561093d5780601f106109125761010080835404028352916020019161093d565b820191906000526020600020905b81548152906001019060200180831161092057829003601f168201915b50505050509550808054610950906110a8565b80601f016020809104026020016040519081016040528092919081815260200182805461097c906110a8565b80156109c95780601f1061099e576101008083540402835291602001916109c9565b820191906000526020600020905b8154815290600101906020018083116109ac57829003601f168201915b5050505050905098509850985098509850985050505091939550919395565b60005481565b8280546109fa906110a8565b90600052602060002090601f016020900481019282610a1c5760008555610a63565b82601f10610a3557805160ff1916838001178555610a63565b82800160010185558215610a63579182015b82811115610a62578251825591602001919060010190610a47565b5b509050610a709190610a74565b5090565b5b80821115610a8d576000816000905550600101610a75565b5090565b6000610aa4610a9f84610fbb565b610f8a565b905082815260208101848484011115610abc57600080fd5b610ac7848285611066565b509392505050565b600082601f830112610ae057600080fd5b8135610af0848260208601610a91565b91505092915050565b600081359050610b08816111c1565b92915050565b600080600080600060a08688031215610b2657600080fd5b600086013567ffffffffffffffff811115610b4057600080fd5b610b4c88828901610acf565b9550506020610b5d88828901610af9565b945050604086013567ffffffffffffffff811115610b7a57600080fd5b610b8688828901610acf565b935050606086013567ffffffffffffffff811115610ba357600080fd5b610baf88828901610acf565b925050608086013567ffffffffffffffff811115610bcc57600080fd5b610bd888828901610acf565b9150509295509295909350565b600060208284031215610bf757600080fd5b6000610c0584828501610af9565b91505092915050565b600080600060608486031215610c2357600080fd5b6000610c3186828701610af9565b935050602084013567ffffffffffffffff811115610c4e57600080fd5b610c5a86828701610acf565b925050604084013567ffffffffffffffff811115610c7757600080fd5b610c8386828701610acf565b9150509250925092565b6000610c998383610d16565b905092915050565b6000610cac82610ffb565b610cb6818561101e565b935083602082028501610cc885610feb565b8060005b85811015610d045784840389528151610ce58582610c8d565b9450610cf083611011565b925060208a01995050600181019050610ccc565b50829750879550505050505092915050565b6000610d2182611006565b610d2b818561102f565b9350610d3b818560208601611075565b610d44816111b0565b840191505092915050565b6000610d5a82611006565b610d648185611040565b9350610d74818560208601611075565b610d7d816111b0565b840191505092915050565b6000610d9382611006565b610d9d8185611051565b9350610dad818560208601611075565b80840191505092915050565b6000610dc6601883611040565b91507f50726f6772616d20616c726561647920617474656e64656400000000000000006000830152602082019050919050565b6000610e06601a83611040565b91507f53747564656e7420616c726561647920726567697374657265640000000000006000830152602082019050919050565b610e428161105c565b82525050565b6000610e548284610d88565b915081905092915050565b600060c0820190508181036000830152610e798189610d4f565b9050610e886020830188610e39565b8181036040830152610e9a8187610ca1565b90508181036060830152610eae8186610ca1565b9050610ebd6080830185610e39565b81810360a0830152610ecf8184610d4f565b9050979650505050505050565b60006080820190508181036000830152610ef68187610d4f565b9050610f056020830186610e39565b610f126040830185610e39565b8181036060830152610f248184610d4f565b905095945050505050565b60006020820190508181036000830152610f4881610db9565b9050919050565b60006020820190508181036000830152610f6881610df9565b9050919050565b6000602082019050610f846000830184610e39565b92915050565b6000604051905081810181811067ffffffffffffffff82111715610fb157610fb0611181565b5b8060405250919050565b600067ffffffffffffffff821115610fd657610fd5611181565b5b601f19601f8301169050602081019050919050565b6000819050602082019050919050565b600081519050919050565b600081519050919050565b6000602082019050919050565b600082825260208201905092915050565b600082825260208201905092915050565b600082825260208201905092915050565b600081905092915050565b6000819050919050565b82818337600083830152505050565b60005b83811015611093578082015181840152602081019050611078565b838111156110a2576000848401525b50505050565b600060028204905060018216806110c057607f821691505b602082108114156110d4576110d3611152565b5b50919050565b60006110e58261105c565b91507fffffffffffffffffffffffffffffffffffffffffffffffffffffffffffffffff82141561111857611117611123565b5b600182019050919050565b7f4e487b7100000000000000000000000000000000000000000000000000000000600052601160045260246000fd5b7f4e487b7100000000000000000000000000000000000000000000000000000000600052602260045260246000fd5b7f4e487b7100000000000000000000000000000000000000000000000000000000600052604160045260246000fd5b6000601f19601f8301169050919050565b6111ca8161105c565b81146111d557600080fd5b5056fea26469706673582212204f986ae91d48030670149257586f6846bd1a7f8b4dd9661bd67edb663eb3902964736f6c63430008000033",
  "immutableReferences": {},
  "source": "// SPDX-License-Identifier: MIT\n\npragma solidity ^0.8.0;\n\ncontract StudentDetails {\n    uint256 public studentCount;\n    struct Program {\n        string programName;\n        uint256 pointsEarned;\n        string date;\n    }\n\n    uint256[] public studentIDs;\n\n    struct Student {\n        string name;\n        uint256 cid;\n        Program[] programsAttended;\n        mapping(string => bool) programExist;\n        uint256 totalPoints;\n        string course;\n    }\n\n    mapping(uint256 => Student) public students;\n\n    function registerStudent(\n        string memory _name,\n        uint256 _cid,\n        string memory _programName,\n        string memory _date,\n        string memory _course\n    ) public {\n        studentCount++;\n        require(students[_cid].cid == 0, \"Student already registered\");\n\n        Student storage newStudent = students[_cid];\n        newStudent.name = _name;\n        newStudent.cid = _cid;\n        newStudent.course = _course;\n        studentIDs.push(_cid);\n        attendProgram(_cid, _programName, _date);\n    }\n\n    function attendProgram(\n        uint256 _cid,\n        string memory _programName,\n        string memory _date\n    ) public {\n        Student storage student = students[_cid];\n\n        require(\n            !student.programExist[_programName],\n            \"Program already attended\"\n        );\n        student.programExist[_programName] = true;\n\n        Program memory newProgram = Program(_programName, 1, _date);\n        student.programsAttended.push(newProgram);\n        student.totalPoints++;\n    }\n\n    function getStudentDetails(uint256 _cid)\n        public\n        view\n        returns (\n            string memory,\n            uint256,\n            string[] memory,\n            string[] memory,\n            uint256,\n            string memory\n        )\n    {\n        Student storage student = students[_cid];\n        string[] memory programNames = new string[](\n            student.programsAttended.length\n        );\n        string[] memory programDates = new string[](\n            student.programsAttended.length\n        );\n\n        for (uint256 i = 0; i < student.programsAttended.length; i++) {\n            programNames[i] = student.programsAttended[i].programName;\n            programDates[i] = student.programsAttended[i].date;\n        }\n\n        return (\n            student.name,\n            student.cid,\n            programNames,\n            programDates,\n            student.totalPoints,\n            student.course\n        );\n    }\n}\n",
  "sourcePath": "/workspace/dapp-project/web3/contracts/StudentDetails.sol",
  "compiler": {
    "name": "solc",
    "version": "0.8.0+commit.c7dfd78e.Emscripten.clang"
  },
  "schemaVersion": "3.4.0",
  "updatedAt": "2023-06-12T19:22:05.653Z",
  "networkType": "ethereum",
  "devdoc": {
    "kind": "dev",
    "methods": {},
    "version": 1
  },
  "userdoc": {
    "kind": "user",
    "methods": {},
    "version": 1
  }
}