{
  "contractName": "NFT_TICKET",
  "abi": [
    {
      "inputs": [
        {
          "internalType": "address",
          "name": "_proxyRegistryAddress",
          "type": "address"
        }
      ],
      "stateMutability": "payable",
      "type": "constructor",
      "payable": true
    },
    {
      "anonymous": false,
      "inputs": [
        {
          "indexed": true,
          "internalType": "address",
          "name": "owner",
          "type": "address"
        },
        {
          "indexed": true,
          "internalType": "address",
          "name": "approved",
          "type": "address"
        },
        {
          "indexed": true,
          "internalType": "uint256",
          "name": "tokenId",
          "type": "uint256"
        }
      ],
      "name": "Approval",
      "type": "event"
    },
    {
      "anonymous": false,
      "inputs": [
        {
          "indexed": true,
          "internalType": "address",
          "name": "owner",
          "type": "address"
        },
        {
          "indexed": true,
          "internalType": "address",
          "name": "operator",
          "type": "address"
        },
        {
          "indexed": false,
          "internalType": "bool",
          "name": "approved",
          "type": "bool"
        }
      ],
      "name": "ApprovalForAll",
      "type": "event"
    },
    {
      "anonymous": false,
      "inputs": [
        {
          "indexed": false,
          "internalType": "uint256",
          "name": "_fromTokenId",
          "type": "uint256"
        },
        {
          "indexed": false,
          "internalType": "uint256",
          "name": "_toTokenId",
          "type": "uint256"
        }
      ],
      "name": "BatchMetadataUpdate",
      "type": "event"
    },
    {
      "anonymous": false,
      "inputs": [
        {
          "indexed": false,
          "internalType": "uint256",
          "name": "_tokenId",
          "type": "uint256"
        }
      ],
      "name": "MetadataUpdate",
      "type": "event"
    },
    {
      "anonymous": false,
      "inputs": [
        {
          "indexed": true,
          "internalType": "address",
          "name": "previousOwner",
          "type": "address"
        },
        {
          "indexed": true,
          "internalType": "address",
          "name": "newOwner",
          "type": "address"
        }
      ],
      "name": "OwnershipTransferred",
      "type": "event"
    },
    {
      "anonymous": false,
      "inputs": [
        {
          "indexed": true,
          "internalType": "address",
          "name": "buyer",
          "type": "address"
        },
        {
          "indexed": true,
          "internalType": "uint256",
          "name": "tokenId",
          "type": "uint256"
        },
        {
          "indexed": true,
          "internalType": "string",
          "name": "eventID",
          "type": "string"
        }
      ],
      "name": "TicketMinted",
      "type": "event"
    },
    {
      "anonymous": false,
      "inputs": [
        {
          "indexed": true,
          "internalType": "address",
          "name": "buyer",
          "type": "address"
        },
        {
          "indexed": true,
          "internalType": "address",
          "name": "seller",
          "type": "address"
        },
        {
          "indexed": true,
          "internalType": "uint256",
          "name": "tokenId",
          "type": "uint256"
        }
      ],
      "name": "TicketPurchased",
      "type": "event"
    },
    {
      "anonymous": false,
      "inputs": [
        {
          "indexed": true,
          "internalType": "address",
          "name": "sender",
          "type": "address"
        },
        {
          "indexed": true,
          "internalType": "address",
          "name": "receiver",
          "type": "address"
        },
        {
          "indexed": true,
          "internalType": "uint256",
          "name": "tokenId",
          "type": "uint256"
        }
      ],
      "name": "TicketTransfered",
      "type": "event"
    },
    {
      "anonymous": false,
      "inputs": [
        {
          "indexed": true,
          "internalType": "address",
          "name": "from",
          "type": "address"
        },
        {
          "indexed": true,
          "internalType": "address",
          "name": "to",
          "type": "address"
        },
        {
          "indexed": true,
          "internalType": "uint256",
          "name": "tokenId",
          "type": "uint256"
        }
      ],
      "name": "Transfer",
      "type": "event"
    },
    {
      "inputs": [
        {
          "internalType": "address",
          "name": "to",
          "type": "address"
        },
        {
          "internalType": "uint256",
          "name": "tokenId",
          "type": "uint256"
        }
      ],
      "name": "approve",
      "outputs": [],
      "stateMutability": "nonpayable",
      "type": "function"
    },
    {
      "inputs": [
        {
          "internalType": "address",
          "name": "owner",
          "type": "address"
        }
      ],
      "name": "balanceOf",
      "outputs": [
        {
          "internalType": "uint256",
          "name": "",
          "type": "uint256"
        }
      ],
      "stateMutability": "view",
      "type": "function",
      "constant": true
    },
    {
      "inputs": [],
      "name": "baseTokenURI",
      "outputs": [
        {
          "internalType": "string",
          "name": "",
          "type": "string"
        }
      ],
      "stateMutability": "view",
      "type": "function",
      "constant": true
    },
    {
      "inputs": [],
      "name": "contractURI",
      "outputs": [
        {
          "internalType": "string",
          "name": "",
          "type": "string"
        }
      ],
      "stateMutability": "view",
      "type": "function",
      "constant": true
    },
    {
      "inputs": [],
      "name": "currentEventID",
      "outputs": [
        {
          "internalType": "string",
          "name": "",
          "type": "string"
        }
      ],
      "stateMutability": "view",
      "type": "function",
      "constant": true
    },
    {
      "inputs": [
        {
          "internalType": "string",
          "name": "",
          "type": "string"
        }
      ],
      "name": "eventIDToTokenCounter",
      "outputs": [
        {
          "internalType": "uint256",
          "name": "",
          "type": "uint256"
        }
      ],
      "stateMutability": "view",
      "type": "function",
      "constant": true
    },
    {
      "inputs": [
        {
          "internalType": "string",
          "name": "",
          "type": "string"
        },
        {
          "internalType": "uint256",
          "name": "",
          "type": "uint256"
        }
      ],
      "name": "eventIDToTokenIds",
      "outputs": [
        {
          "internalType": "uint256",
          "name": "",
          "type": "uint256"
        }
      ],
      "stateMutability": "view",
      "type": "function",
      "constant": true
    },
    {
      "inputs": [
        {
          "internalType": "uint256",
          "name": "tokenId",
          "type": "uint256"
        }
      ],
      "name": "getApproved",
      "outputs": [
        {
          "internalType": "address",
          "name": "",
          "type": "address"
        }
      ],
      "stateMutability": "view",
      "type": "function",
      "constant": true
    },
    {
      "inputs": [],
      "name": "isMintEnabled",
      "outputs": [
        {
          "internalType": "bool",
          "name": "",
          "type": "bool"
        }
      ],
      "stateMutability": "view",
      "type": "function",
      "constant": true
    },
    {
      "inputs": [],
      "name": "name",
      "outputs": [
        {
          "internalType": "string",
          "name": "",
          "type": "string"
        }
      ],
      "stateMutability": "view",
      "type": "function",
      "constant": true
    },
    {
      "inputs": [],
      "name": "owner",
      "outputs": [
        {
          "internalType": "address",
          "name": "",
          "type": "address"
        }
      ],
      "stateMutability": "view",
      "type": "function",
      "constant": true
    },
    {
      "inputs": [
        {
          "internalType": "uint256",
          "name": "tokenId",
          "type": "uint256"
        }
      ],
      "name": "ownerOf",
      "outputs": [
        {
          "internalType": "address",
          "name": "",
          "type": "address"
        }
      ],
      "stateMutability": "view",
      "type": "function",
      "constant": true
    },
    {
      "inputs": [],
      "name": "proxyRegistryAddress",
      "outputs": [
        {
          "internalType": "address",
          "name": "",
          "type": "address"
        }
      ],
      "stateMutability": "view",
      "type": "function",
      "constant": true
    },
    {
      "inputs": [],
      "name": "renounceOwnership",
      "outputs": [],
      "stateMutability": "nonpayable",
      "type": "function"
    },
    {
      "inputs": [
        {
          "internalType": "address",
          "name": "from",
          "type": "address"
        },
        {
          "internalType": "address",
          "name": "to",
          "type": "address"
        },
        {
          "internalType": "uint256",
          "name": "tokenId",
          "type": "uint256"
        }
      ],
      "name": "safeTransferFrom",
      "outputs": [],
      "stateMutability": "nonpayable",
      "type": "function"
    },
    {
      "inputs": [
        {
          "internalType": "address",
          "name": "from",
          "type": "address"
        },
        {
          "internalType": "address",
          "name": "to",
          "type": "address"
        },
        {
          "internalType": "uint256",
          "name": "tokenId",
          "type": "uint256"
        },
        {
          "internalType": "bytes",
          "name": "data",
          "type": "bytes"
        }
      ],
      "name": "safeTransferFrom",
      "outputs": [],
      "stateMutability": "nonpayable",
      "type": "function"
    },
    {
      "inputs": [
        {
          "internalType": "address",
          "name": "operator",
          "type": "address"
        },
        {
          "internalType": "bool",
          "name": "approved",
          "type": "bool"
        }
      ],
      "name": "setApprovalForAll",
      "outputs": [],
      "stateMutability": "nonpayable",
      "type": "function"
    },
    {
      "inputs": [
        {
          "internalType": "bytes4",
          "name": "interfaceId",
          "type": "bytes4"
        }
      ],
      "name": "supportsInterface",
      "outputs": [
        {
          "internalType": "bool",
          "name": "",
          "type": "bool"
        }
      ],
      "stateMutability": "view",
      "type": "function",
      "constant": true
    },
    {
      "inputs": [],
      "name": "symbol",
      "outputs": [
        {
          "internalType": "string",
          "name": "",
          "type": "string"
        }
      ],
      "stateMutability": "view",
      "type": "function",
      "constant": true
    },
    {
      "inputs": [
        {
          "internalType": "uint256",
          "name": "",
          "type": "uint256"
        }
      ],
      "name": "ticketBuyers",
      "outputs": [
        {
          "internalType": "address",
          "name": "",
          "type": "address"
        }
      ],
      "stateMutability": "view",
      "type": "function",
      "constant": true
    },
    {
      "inputs": [],
      "name": "ticketCount",
      "outputs": [
        {
          "internalType": "uint256",
          "name": "",
          "type": "uint256"
        }
      ],
      "stateMutability": "view",
      "type": "function",
      "constant": true
    },
    {
      "inputs": [],
      "name": "ticketPrice",
      "outputs": [
        {
          "internalType": "uint256",
          "name": "",
          "type": "uint256"
        }
      ],
      "stateMutability": "view",
      "type": "function",
      "constant": true
    },
    {
      "inputs": [
        {
          "internalType": "uint256",
          "name": "",
          "type": "uint256"
        }
      ],
      "name": "tokenIdToDetails",
      "outputs": [
        {
          "internalType": "uint256",
          "name": "tokenId",
          "type": "uint256"
        },
        {
          "internalType": "string",
          "name": "eventId",
          "type": "string"
        },
        {
          "internalType": "string",
          "name": "tokenUri",
          "type": "string"
        }
      ],
      "stateMutability": "view",
      "type": "function",
      "constant": true
    },
    {
      "inputs": [],
      "name": "totalSupply",
      "outputs": [
        {
          "internalType": "uint256",
          "name": "",
          "type": "uint256"
        }
      ],
      "stateMutability": "view",
      "type": "function",
      "constant": true
    },
    {
      "inputs": [
        {
          "internalType": "address",
          "name": "from",
          "type": "address"
        },
        {
          "internalType": "address",
          "name": "to",
          "type": "address"
        },
        {
          "internalType": "uint256",
          "name": "tokenId",
          "type": "uint256"
        }
      ],
      "name": "transferFrom",
      "outputs": [],
      "stateMutability": "nonpayable",
      "type": "function"
    },
    {
      "inputs": [
        {
          "internalType": "address",
          "name": "newOwner",
          "type": "address"
        }
      ],
      "name": "transferOwnership",
      "outputs": [],
      "stateMutability": "nonpayable",
      "type": "function"
    },
    {
      "inputs": [],
      "name": "toggleIsMintEnabled",
      "outputs": [],
      "stateMutability": "nonpayable",
      "type": "function"
    },
    {
      "inputs": [],
      "name": "mint",
      "outputs": [],
      "stateMutability": "payable",
      "type": "function",
      "payable": true
    },
    {
      "inputs": [
        {
          "internalType": "uint256",
          "name": "tokenId",
          "type": "uint256"
        }
      ],
      "name": "getBuyerInfo",
      "outputs": [
        {
          "internalType": "address",
          "name": "",
          "type": "address"
        }
      ],
      "stateMutability": "view",
      "type": "function",
      "constant": true
    },
    {
      "inputs": [
        {
          "internalType": "uint256",
          "name": "tokenId",
          "type": "uint256"
        }
      ],
      "name": "purchaseTicket",
      "outputs": [],
      "stateMutability": "payable",
      "type": "function",
      "payable": true
    },
    {
      "inputs": [
        {
          "internalType": "address",
          "name": "_to",
          "type": "address"
        },
        {
          "internalType": "uint256",
          "name": "tokenId",
          "type": "uint256"
        }
      ],
      "name": "transferTicket",
      "outputs": [],
      "stateMutability": "nonpayable",
      "type": "function"
    },
    {
      "inputs": [
        {
          "internalType": "uint256",
          "name": "tokenId",
          "type": "uint256"
        }
      ],
      "name": "getTicketDetails",
      "outputs": [
        {
          "internalType": "uint256",
          "name": "",
          "type": "uint256"
        },
        {
          "internalType": "string",
          "name": "",
          "type": "string"
        },
        {
          "internalType": "string",
          "name": "",
          "type": "string"
        }
      ],
      "stateMutability": "view",
      "type": "function",
      "constant": true
    },
    {
      "inputs": [
        {
          "internalType": "uint256",
          "name": "_tokenId",
          "type": "uint256"
        }
      ],
      "name": "tokenURI",
      "outputs": [
        {
          "internalType": "string",
          "name": "",
          "type": "string"
        }
      ],
      "stateMutability": "view",
      "type": "function",
      "constant": true
    },
    {
      "inputs": [],
      "name": "getContractURI",
      "outputs": [
        {
          "internalType": "string",
          "name": "",
          "type": "string"
        }
      ],
      "stateMutability": "view",
      "type": "function",
      "constant": true
    },
    {
      "inputs": [
        {
          "internalType": "address",
          "name": "owner",
          "type": "address"
        },
        {
          "internalType": "address",
          "name": "operator",
          "type": "address"
        }
      ],
      "name": "isApprovedForAll",
      "outputs": [
        {
          "internalType": "bool",
          "name": "",
          "type": "bool"
        }
      ],
      "stateMutability": "view",
      "type": "function",
      "constant": true
    }
  ],
  "bytecode": "0x60e0604052602a6080818152906200282560a03980516200002991600e91602090910190620001b4565b5060405162002879380380620028798339810160408190526200004c916200025a565b604080518082018252600a8152692224a3a4afaa37b5b2b760b11b6020808301918252835180850190945260038452621111d560ea1b9084015281519192916200009991600091620001b4565b508051620000af906001906020840190620001b4565b505050620000cc620000c66200015e60201b60201c565b62000162565b6000600a55604080518082019091526001808252603160f81b6020909201918252620000fb91600891620001b4565b506040518060600160405280602a81526020016200284f602a913980516200012c91600d91602090910190620001b4565b50600f80546001600160a01b0319166001600160a01b039290921691909117905566038d7ea4c68000600c55620002c7565b3390565b600780546001600160a01b038381166001600160a01b0319831681179093556040519116919082907f8be0079c531659141344cd1fd0a4f28419497f9722a3daafe3b4186f6b6457e090600090a35050565b828054620001c2906200028a565b90600052602060002090601f016020900481019282620001e6576000855562000231565b82601f106200020157805160ff191683800117855562000231565b8280016001018555821562000231579182015b828111156200023157825182559160200191906001019062000214565b506200023f92915062000243565b5090565b5b808211156200023f576000815560010162000244565b6000602082840312156200026c578081fd5b81516001600160a01b038116811462000283578182fd5b9392505050565b600181811c908216806200029f57607f821691505b60208210811415620002c157634e487b7160e01b600052602260045260246000fd5b50919050565b61254e80620002d76000396000f3fe6080604052600436106102045760003560e01c806370a0823111610118578063c87b56dd116100a0578063d547cfb71161006f578063d547cfb7146105d2578063e06a968b146105e7578063e8a3d48514610607578063e985e9c51461061c578063f2fde38b1461063c57600080fd5b8063c87b56dd14610546578063cd7c032614610566578063ce010ba314610586578063cfbd900f146105bc57600080fd5b80639a003129116100e75780639a00312914610497578063a22cb465146104cf578063b88d4fde146104ef578063b948348c1461050f578063c40732171461052257600080fd5b806370a082311461042f578063715018a61461044f5780638da5cb5b1461046457806395d89b411461048257600080fd5b806318160ddd1161019b57806337929eb41161016a57806337929eb41461039a57806342842e0e146103af57806351958a56146103cf5780635aee8703146103ef5780636352211e1461040f57600080fd5b806318160ddd1461031b57806323b872dd1461033157806324c1416014610351578063346de50a1461038057600080fd5b806311f41d22116101d757806311f41d22146102ba5780631209b1f6146102cf5780631249c58b146102f35780631555d402146102fb57600080fd5b806301ffc9a71461020957806306fdde031461023e578063081812fc14610260578063095ea7b314610298575b600080fd5b34801561021557600080fd5b50610229610224366004612087565b61065c565b60405190151581526020015b60405180910390f35b34801561024a57600080fd5b50610253610687565b60405161023591906122c4565b34801561026c57600080fd5b5061028061027b366004612151565b610719565b6040516001600160a01b039091168152602001610235565b3480156102a457600080fd5b506102b86102b336600461205c565b610740565b005b3480156102c657600080fd5b5061025361085b565b3480156102db57600080fd5b506102e5600c5481565b604051908152602001610235565b6102b86108e9565b34801561030757600080fd5b506102e561031636600461210e565b610b8e565b34801561032757600080fd5b506102e560095481565b34801561033d57600080fd5b506102b861034c366004611f6e565b610bce565b34801561035d57600080fd5b5061037161036c366004612151565b610bff565b604051610235939291906123e5565b34801561038c57600080fd5b50600b546102299060ff1681565b3480156103a657600080fd5b50610253610d24565b3480156103bb57600080fd5b506102b86103ca366004611f6e565b610d33565b3480156103db57600080fd5b506102b86103ea36600461205c565b610d4e565b3480156103fb57600080fd5b5061028061040a366004612151565b610da3565b34801561041b57600080fd5b5061028061042a366004612151565b610dee565b34801561043b57600080fd5b506102e561044a366004611f1a565b610e4e565b34801561045b57600080fd5b506102b8610ed4565b34801561047057600080fd5b506007546001600160a01b0316610280565b34801561048e57600080fd5b50610253610ee8565b3480156104a357600080fd5b506102e56104b23660046120db565b805160208183018101805160128252928201919093012091525481565b3480156104db57600080fd5b506102b86104ea36600461202b565b610ef7565b3480156104fb57600080fd5b506102b861050a366004611fae565b610f06565b6102b861051d366004612151565b610f3e565b34801561052e57600080fd5b506102b8600b805460ff19811660ff90911615179055565b34801561055257600080fd5b50610253610561366004612151565b611154565b34801561057257600080fd5b50600f54610280906001600160a01b031681565b34801561059257600080fd5b506102806105a1366004612151565b6010602052600090815260409020546001600160a01b031681565b3480156105c857600080fd5b506102e5600a5481565b3480156105de57600080fd5b50610253611188565b3480156105f357600080fd5b50610371610602366004612151565b611195565b34801561061357600080fd5b506102536112c8565b34801561062857600080fd5b50610229610637366004611f36565b6112d5565b34801561064857600080fd5b506102b8610657366004611f1a565b6113a5565b60006001600160e01b03198216632483248360e11b148061068157506106818261141e565b92915050565b6060600080546106969061246b565b80601f01602080910402602001604051908101604052809291908181526020018280546106c29061246b565b801561070f5780601f106106e45761010080835404028352916020019161070f565b820191906000526020600020905b8154815290600101906020018083116106f257829003601f168201915b5050505050905090565b60006107248261146e565b506000908152600460205260409020546001600160a01b031690565b600061074b82610dee565b9050806001600160a01b0316836001600160a01b031614156107be5760405162461bcd60e51b815260206004820152602160248201527f4552433732313a20617070726f76616c20746f2063757272656e74206f776e656044820152603960f91b60648201526084015b60405180910390fd5b336001600160a01b03821614806107da57506107da81336112d5565b61084c5760405162461bcd60e51b815260206004820152603d60248201527f4552433732313a20617070726f76652063616c6c6572206973206e6f7420746f60448201527f6b656e206f776e6572206f7220617070726f76656420666f7220616c6c00000060648201526084016107b5565b61085683836114cd565b505050565b600880546108689061246b565b80601f01602080910402602001604051908101604052809291908181526020018280546108949061246b565b80156108e15780601f106108b6576101008083540402835291602001916108e1565b820191906000526020600020905b8154815290600101906020018083116108c457829003601f168201915b505050505081565b6000600880546108f89061246b565b90501161093f5760405162461bcd60e51b815260206004820152601560248201527410dd5c9c995b9d08195d995b9d081b9bdd081cd95d605a1b60448201526064016107b5565b6000601260086040516109529190612249565b908152602001604051809103902054600161096d9190612410565b905080601260086040516109819190612249565b908152602001604051809103902081905550601360086040516109a49190612249565b908152604051602091819003820190208054600181018255600091825291812090910182905560098054916109d8836124a6565b9091555050600a80549060006109ed836124a6565b91905055506000600d6109ff8361153b565b604051602001610a10929190612255565b6040516020818303038152906040529050610a2b33836115e6565b610a358282611600565b60008281526010602090815260409182902080546001600160a01b031916331790558151606081019092528382526008805491830191610a749061246b565b80601f0160208091040260200160405190810160405280929190818152602001828054610aa09061246b565b8015610aed5780601f10610ac257610100808354040283529160200191610aed565b820191906000526020600020905b815481529060010190602001808311610ad057829003601f168201915b5050509183525050602090810183905260008481526011825260409020825181558282015180519192610b2892600185019290910190611de5565b5060408201518051610b44916002840191602090910190611de5565b5050604051610b569150600890612249565b60405190819003812090839033907ff16f1e8b680ea7f1e8a1f849eb82762cba60ddcef854d36909e3173483281c8c90600090a45050565b81516020818401810180516013825292820191850191909120919052805482908110610bb957600080fd5b90600052602060002001600091509150505481565b610bd833826116d2565b610bf45760405162461bcd60e51b81526004016107b5906122d7565b610856838383611730565b6000606080600084118015610c1657506009548411155b610c325760405162461bcd60e51b81526004016107b5906123bb565b60408051602081019091526000815260015b6009548111610d0b5760005b6013610c5b8361153b565b604051610c68919061222d565b90815260405190819003602001902054811015610cf857866013610c8b8461153b565b604051610c98919061222d565b90815260200160405180910390208281548110610cc557634e487b7160e01b600052603260045260246000fd5b90600052602060002001541415610ce657610cdf8261153b565b9250610cf8565b80610cf0816124a6565b915050610c50565b5080610d03816124a6565b915050610c44565b506000610d1786611154565b9596919594509092505050565b6060600e80546106969061246b565b61085683838360405180602001604052806000815250610f06565b6000610d5982610dee565b9050610d66818484611730565b60405182906001600160a01b0385169033907fd44fac1f5dbf8e8674ffb02fd7846c7b6771f2d2a311ae9d2ee52958e69ea5fe90600090a4505050565b60008082118015610db657506009548211155b610dd25760405162461bcd60e51b81526004016107b5906123bb565b506000908152601060205260409020546001600160a01b031690565b6000818152600260205260408120546001600160a01b0316806106815760405162461bcd60e51b8152602060048201526018602482015277115490cdcc8c4e881a5b9d985b1a59081d1bdad95b88125160421b60448201526064016107b5565b60006001600160a01b038216610eb85760405162461bcd60e51b815260206004820152602960248201527f4552433732313a2061646472657373207a65726f206973206e6f7420612076616044820152683634b21037bbb732b960b91b60648201526084016107b5565b506001600160a01b031660009081526003602052604090205490565b610edc611894565b610ee660006118ee565b565b6060600180546106969061246b565b610f02338383611940565b5050565b610f1033836116d2565b610f2c5760405162461bcd60e51b81526004016107b5906122d7565b610f3884848484611a0f565b50505050565b600081118015610f5057506009548111155b610f6c5760405162461bcd60e51b81526004016107b5906123bb565b6000610f7782610dee565b90506001600160a01b038116610fc05760405162461bcd60e51b815260206004820152600e60248201526d24b73b30b634b21039b2b63632b960911b60448201526064016107b5565b336001600160a01b03821614156110195760405162461bcd60e51b815260206004820152601b60248201527f596f7520616c7265616479206f776e2074686973207469636b6574000000000060448201526064016107b5565b6000341161105d5760405162461bcd60e51b8152602060048201526011602482015270139bc8199d5b991cc81c1c9bdd9a591959607a1b60448201526064016107b5565b600c543410156110a45760405162461bcd60e51b8152602060048201526012602482015271496e73756666696369656e742066756e647360701b60448201526064016107b5565b6110af813384611730565b600c546040516001600160a01b0383169180156108fc02916000818181858888f193505050501580156110e6573d6000803e3d6000fd5b50600082815260106020526040812080546001600160a01b03191633179055600a80549161111383612454565b909155505060405182906001600160a01b0383169033907f46c5a89a1e066b5bcda22269562318e5aa065997bf8b36af3a6b37b87852d89090600090a45050565b6060600d6111618361153b565b604051602001611172929190612255565b6040516020818303038152906040529050919050565b600d80546108689061246b565b601160205260009081526040902080546001820180549192916111b79061246b565b80601f01602080910402602001604051908101604052809291908181526020018280546111e39061246b565b80156112305780601f1061120557610100808354040283529160200191611230565b820191906000526020600020905b81548152906001019060200180831161121357829003601f168201915b5050505050908060020180546112459061246b565b80601f01602080910402602001604051908101604052809291908181526020018280546112719061246b565b80156112be5780601f10611293576101008083540402835291602001916112be565b820191906000526020600020905b8154815290600101906020018083116112a157829003601f168201915b5050505050905083565b600e80546108689061246b565b600f5460405163c455279160e01b81526001600160a01b03848116600483015260009281169190841690829063c45527919060240160206040518083038186803b15801561132257600080fd5b505afa158015611336573d6000803e3d6000fd5b505050506040513d601f19601f8201168201806040525081019061135a91906120bf565b6001600160a01b03161415611373576001915050610681565b6001600160a01b0380851660009081526005602090815260408083209387168352929052205460ff165b949350505050565b6113ad611894565b6001600160a01b0381166114125760405162461bcd60e51b815260206004820152602660248201527f4f776e61626c653a206e6577206f776e657220697320746865207a65726f206160448201526564647265737360d01b60648201526084016107b5565b61141b816118ee565b50565b60006001600160e01b031982166380ac58cd60e01b148061144f57506001600160e01b03198216635b5e139f60e01b145b8061068157506301ffc9a760e01b6001600160e01b0319831614610681565b6000818152600260205260409020546001600160a01b031661141b5760405162461bcd60e51b8152602060048201526018602482015277115490cdcc8c4e881a5b9d985b1a59081d1bdad95b88125160421b60448201526064016107b5565b600081815260046020526040902080546001600160a01b0319166001600160a01b038416908117909155819061150282610dee565b6001600160a01b03167f8c5be1e5ebec7d5bd14f71427d1e84f3dd0314c0f7b2291e5b200ac8c7c3b92560405160405180910390a45050565b6060600061154883611a42565b600101905060008167ffffffffffffffff81111561157657634e487b7160e01b600052604160045260246000fd5b6040519080825280601f01601f1916602001820160405280156115a0576020820181803683370190505b5090508181016020015b600019016f181899199a1a9b1b9c1cb0b131b232b360811b600a86061a8153600a85049450846115d9576115de565b6115aa565b509392505050565b610f02828260405180602001604052806000815250611b1a565b6000828152600260205260409020546001600160a01b031661167b5760405162461bcd60e51b815260206004820152602e60248201527f45524337323155524953746f726167653a2055524920736574206f66206e6f6e60448201526d32bc34b9ba32b73a103a37b5b2b760911b60648201526084016107b5565b6000828152600660209081526040909120825161169a92840190611de5565b506040518281527ff8e1a15aba9398e019f0b49df1a4fde98ee17ae345cb5f6b5e2c27f5033e8ce79060200160405180910390a15050565b6000806116de83610dee565b9050806001600160a01b0316846001600160a01b03161480611705575061170581856112d5565b8061139d5750836001600160a01b031661171e84610719565b6001600160a01b031614949350505050565b826001600160a01b031661174382610dee565b6001600160a01b0316146117695760405162461bcd60e51b81526004016107b590612376565b6001600160a01b0382166117cb5760405162461bcd60e51b8152602060048201526024808201527f4552433732313a207472616e7366657220746f20746865207a65726f206164646044820152637265737360e01b60648201526084016107b5565b826001600160a01b03166117de82610dee565b6001600160a01b0316146118045760405162461bcd60e51b81526004016107b590612376565b600081815260046020908152604080832080546001600160a01b03199081169091556001600160a01b0387811680865260038552838620805460001901905590871680865283862080546001019055868652600290945282852080549092168417909155905184937fddf252ad1be2c89b69c2b068fc378daa952ba7f163c4a11628f55a4df523b3ef91a4505050565b6007546001600160a01b03163314610ee65760405162461bcd60e51b815260206004820181905260248201527f4f776e61626c653a2063616c6c6572206973206e6f7420746865206f776e657260448201526064016107b5565b600780546001600160a01b038381166001600160a01b0319831681179093556040519116919082907f8be0079c531659141344cd1fd0a4f28419497f9722a3daafe3b4186f6b6457e090600090a35050565b816001600160a01b0316836001600160a01b031614156119a25760405162461bcd60e51b815260206004820152601960248201527f4552433732313a20617070726f766520746f2063616c6c65720000000000000060448201526064016107b5565b6001600160a01b03838116600081815260056020908152604080832094871680845294825291829020805460ff191686151590811790915591519182527f17307eab39ab6107e8899845ad3d59bd9653f200f220920489ca2b5937696c31910160405180910390a3505050565b611a1a848484611730565b611a2684848484611b4d565b610f385760405162461bcd60e51b81526004016107b590612324565b60008072184f03e93ff9f4daa797ed6e38ed64bf6a1f0160401b8310611a815772184f03e93ff9f4daa797ed6e38ed64bf6a1f0160401b830492506040015b6d04ee2d6d415b85acef81000000008310611aad576d04ee2d6d415b85acef8100000000830492506020015b662386f26fc100008310611acb57662386f26fc10000830492506010015b6305f5e1008310611ae3576305f5e100830492506008015b6127108310611af757612710830492506004015b60648310611b09576064830492506002015b600a83106106815760010192915050565b611b248383611c5a565b611b316000848484611b4d565b6108565760405162461bcd60e51b81526004016107b590612324565b60006001600160a01b0384163b15611c4f57604051630a85bd0160e11b81526001600160a01b0385169063150b7a0290611b91903390899088908890600401612287565b602060405180830381600087803b158015611bab57600080fd5b505af1925050508015611bdb575060408051601f3d908101601f19168201909252611bd8918101906120a3565b60015b611c35573d808015611c09576040519150601f19603f3d011682016040523d82523d6000602084013e611c0e565b606091505b508051611c2d5760405162461bcd60e51b81526004016107b590612324565b805181602001fd5b6001600160e01b031916630a85bd0160e11b14905061139d565b506001949350505050565b6001600160a01b038216611cb05760405162461bcd60e51b815260206004820181905260248201527f4552433732313a206d696e7420746f20746865207a65726f206164647265737360448201526064016107b5565b6000818152600260205260409020546001600160a01b031615611d155760405162461bcd60e51b815260206004820152601c60248201527f4552433732313a20746f6b656e20616c7265616479206d696e7465640000000060448201526064016107b5565b6000818152600260205260409020546001600160a01b031615611d7a5760405162461bcd60e51b815260206004820152601c60248201527f4552433732313a20746f6b656e20616c7265616479206d696e7465640000000060448201526064016107b5565b6001600160a01b038216600081815260036020908152604080832080546001019055848352600290915280822080546001600160a01b0319168417905551839291907fddf252ad1be2c89b69c2b068fc378daa952ba7f163c4a11628f55a4df523b3ef908290a45050565b828054611df19061246b565b90600052602060002090601f016020900481019282611e135760008555611e59565b82601f10611e2c57805160ff1916838001178555611e59565b82800160010185558215611e59579182015b82811115611e59578251825591602001919060010190611e3e565b50611e65929150611e69565b5090565b5b80821115611e655760008155600101611e6a565b600067ffffffffffffffff80841115611e9957611e996124d7565b604051601f8501601f19908116603f01168101908282118183101715611ec157611ec16124d7565b81604052809350858152868686011115611eda57600080fd5b858560208301376000602087830101525050509392505050565b600082601f830112611f04578081fd5b611f1383833560208501611e7e565b9392505050565b600060208284031215611f2b578081fd5b8135611f13816124ed565b60008060408385031215611f48578081fd5b8235611f53816124ed565b91506020830135611f63816124ed565b809150509250929050565b600080600060608486031215611f82578081fd5b8335611f8d816124ed565b92506020840135611f9d816124ed565b929592945050506040919091013590565b60008060008060808587031215611fc3578081fd5b8435611fce816124ed565b93506020850135611fde816124ed565b925060408501359150606085013567ffffffffffffffff811115612000578182fd5b8501601f81018713612010578182fd5b61201f87823560208401611e7e565b91505092959194509250565b6000806040838503121561203d578182fd5b8235612048816124ed565b915060208301358015158114611f63578182fd5b6000806040838503121561206e578182fd5b8235612079816124ed565b946020939093013593505050565b600060208284031215612098578081fd5b8135611f1381612502565b6000602082840312156120b4578081fd5b8151611f1381612502565b6000602082840312156120d0578081fd5b8151611f13816124ed565b6000602082840312156120ec578081fd5b813567ffffffffffffffff811115612102578182fd5b61139d84828501611ef4565b60008060408385031215612120578182fd5b823567ffffffffffffffff811115612136578283fd5b61214285828601611ef4565b95602094909401359450505050565b600060208284031215612162578081fd5b5035919050565b60008151808452612181816020860160208601612428565b601f01601f19169290920160200192915050565b8054600090600181811c90808316806121af57607f831692505b60208084108214156121cf57634e487b7160e01b86526022600452602486fd5b8180156121e357600181146121f457612221565b60ff19861689528489019650612221565b60008881526020902060005b868110156122195781548b820152908501908301612200565b505084890196505b50505050505092915050565b6000825161223f818460208701612428565b9190910192915050565b6000611f138284612195565b60006122618285612195565b602f60f81b8152835161227b816001840160208801612428565b01600101949350505050565b6001600160a01b03858116825284166020820152604081018390526080606082018190526000906122ba90830184612169565b9695505050505050565b602081526000611f136020830184612169565b6020808252602d908201527f4552433732313a2063616c6c6572206973206e6f7420746f6b656e206f776e6560408201526c1c881bdc88185c1c1c9bdd9959609a1b606082015260800190565b60208082526032908201527f4552433732313a207472616e7366657220746f206e6f6e20455243373231526560408201527131b2b4bb32b91034b6b83632b6b2b73a32b960711b606082015260800190565b60208082526025908201527f4552433732313a207472616e736665722066726f6d20696e636f72726563742060408201526437bbb732b960d91b606082015260800190565b60208082526010908201526f125b9d985b1a5908151bdad95b88125160821b604082015260600190565b8381526060602082015260006123fe6060830185612169565b82810360408401526122ba8185612169565b60008219821115612423576124236124c1565b500190565b60005b8381101561244357818101518382015260200161242b565b83811115610f385750506000910152565b600081612463576124636124c1565b506000190190565b600181811c9082168061247f57607f821691505b602082108114156124a057634e487b7160e01b600052602260045260246000fd5b50919050565b60006000198214156124ba576124ba6124c1565b5060010190565b634e487b7160e01b600052601160045260246000fd5b634e487b7160e01b600052604160045260246000fd5b6001600160a01b038116811461141b57600080fd5b6001600160e01b03198116811461141b57600080fdfea2646970667358221220023b3afadaa4f554c49991781f6c347ae513debb2402f7167456d5bd1effe81a64736f6c6343000804003368747470733a2f2f6170692e6e706f696e742e696f2f613837363664336633383438346335343936656268747470733a2f2f6170692e6e706f696e742e696f2f6164323130333466643966353264386331356237",
  "immutableReferences": {},
  "source": "// SPDX-License-Identifier: MIT\n\npragma solidity ^0.8.4;\n\nimport \"@openzeppelin/contracts/token/ERC721/ERC721.sol\";\nimport \"@openzeppelin/contracts/access/Ownable.sol\";\nimport \"@openzeppelin/contracts/utils/Strings.sol\";\nimport \"@openzeppelin/contracts/token/ERC721/extensions/ERC721URIStorage.sol\";\n\ncontract OwnableDelegateProxy {}\n\ncontract ProxyRegistry {\n    mapping(address => OwnableDelegateProxy) public proxies;\n}\n\ncontract NFT_TICKET is ERC721URIStorage, Ownable {\n    struct Ticket {\n    uint256 tokenId;\n    string eventId;\n    string tokenUri;\n    }\n    string public currentEventID;\n    uint256 public totalSupply;\n    uint256 public ticketCount;\n    bool public isMintEnabled;\n    uint256 public ticketPrice;\n    string public baseTokenURI;\n    string public contractURI = \"https://api.npoint.io/a8766d3f38484c5496eb\";\n    address public proxyRegistryAddress;\n    mapping(uint256 => address) public ticketBuyers;\n    mapping(uint256 => Ticket) public tokenIdToDetails;\n    mapping(string => uint256) public eventIDToTokenCounter;\n    mapping(string => uint256[]) public eventIDToTokenIds;\n\n    event TicketMinted(address indexed buyer, uint256 indexed tokenId,string indexed eventID);\n    event TicketPurchased(\n        address indexed buyer,\n        address indexed seller,\n        uint256 indexed tokenId);\n    event TicketTransfered(\n        address indexed sender,\n        address indexed receiver,\n        uint256 indexed tokenId\n    );\n\n    constructor(\n        address _proxyRegistryAddress\n    ) payable ERC721(\"DIGI_Token\", \"DGT\") Ownable() {\n        ticketCount=0;\n        currentEventID =\"1\";\n        baseTokenURI = \"https://api.npoint.io/ad21034fd9f52d8c15b7\";\n        proxyRegistryAddress = _proxyRegistryAddress;\n        ticketPrice = 0.001 ether;\n    }\n\n    function toggleIsMintEnabled() external {\n        isMintEnabled = !isMintEnabled;\n    }\n    function mint() external payable {\n    // require(isMintEnabled, \"minting not enabled\");\n    require(bytes(currentEventID).length > 0, \"Current event not set\");\n    uint256 tokenId = eventIDToTokenCounter[currentEventID] + 1;\n    eventIDToTokenCounter[currentEventID] = tokenId;\n    eventIDToTokenIds[currentEventID].push(tokenId);\n    totalSupply++;\n    ticketCount++;\n    string memory tokenUri = string(\n        abi.encodePacked(baseTokenURI, \"/\", Strings.toString(tokenId))\n    );\n    \n    _safeMint(msg.sender, tokenId);\n    _setTokenURI(tokenId, tokenUri);\n    ticketBuyers[tokenId] = msg.sender;\n    tokenIdToDetails[tokenId] = Ticket(tokenId, currentEventID, tokenUri);\n    emit TicketMinted(msg.sender, tokenId, currentEventID);\n}\n\n\n    function getBuyerInfo(uint256 tokenId) external view returns (address) {\n        require(tokenId > 0 && tokenId <= totalSupply, \"Invalid Token ID\");\n        return ticketBuyers[tokenId];\n    }\n\n    function purchaseTicket(uint256 tokenId) external payable {\n        // require(isMintEnabled, \"Minting not enabled\");\n        require(tokenId > 0 && tokenId <= totalSupply, \"Invalid Token ID\");\n        address seller = ownerOf(tokenId);\n        require(seller != address(0), \"Invalid seller\");\n        require(msg.sender != seller, \"You already own this ticket\");\n        require(msg.value > 0, \"No funds provided\");\n        require(msg.value >= ticketPrice, \"Insufficient funds\");\n        // Transfer ownership from the seller to the buyer\n        _transfer(seller, msg.sender, tokenId);\n        // Transfer funds to the seller\n        payable(seller).transfer(ticketPrice);\n\n        ticketBuyers[tokenId] = msg.sender;\n        ticketCount--;\n\n        emit TicketPurchased(msg.sender, seller, tokenId);\n    }\n    function transferTicket(address _to, uint256 tokenId) external{\n        address seller = ownerOf(tokenId);\n        _transfer(seller,_to,tokenId);\n        emit TicketTransfered(msg.sender,_to,tokenId);\n    }\n     function getTicketDetails(uint256 tokenId)\n        external\n        view\n        returns (uint256, string memory, string memory)\n    {\n        require(tokenId > 0 && tokenId <= totalSupply, \"Invalid Token ID\");\n\n        // Find the eventID associated with the tokenId\n        string memory eventId = \"\";\n        for (uint256 i = 1; i <= totalSupply; i++) {\n            for (\n                uint256 j = 0;\n                j < eventIDToTokenIds[Strings.toString(i)].length;\n                j++\n            ) {\n                if (eventIDToTokenIds[Strings.toString(i)][j] == tokenId) {\n                    eventId = Strings.toString(i);\n                    break;\n                }\n            }\n        }\n\n        // Get the tokenURI associated with the tokenId\n        string memory tokenUri = tokenURI(tokenId);\n\n        return (tokenId, eventId, tokenUri);\n    }\n\n    function tokenURI(\n        uint256 _tokenId\n    ) public view override returns (string memory) {\n        return\n            string(\n                abi.encodePacked(baseTokenURI, \"/\", Strings.toString(_tokenId))\n            );\n    }\n\n    function getContractURI() public view returns (string memory) {\n        return contractURI;\n    }\n\n    function isApprovedForAll(address owner, address operator) public view virtual override returns (bool) {\n    // Whitelist OpenSea proxy contract for easy trading.\n    ProxyRegistry proxyRegistry = ProxyRegistry(proxyRegistryAddress);\n    if (address(proxyRegistry.proxies(owner)) == operator) {\n        return true;\n    }\n    return super.isApprovedForAll(owner, operator);\n}\n}\n",
  "sourcePath": "/workspace/contracts/NFT_TICKET.sol",
  "compiler": {
    "name": "solc",
    "version": "0.8.4+commit.c7e474f2.Emscripten.clang"
  },
  "schemaVersion": "3.4.10",
  "updatedAt": "2023-11-26T13:02:13.076Z",
  "networkType": "ethereum",
  "devdoc": {
    "kind": "dev",
    "methods": {
      "approve(address,uint256)": {
        "details": "See {IERC721-approve}."
      },
      "balanceOf(address)": {
        "details": "See {IERC721-balanceOf}."
      },
      "getApproved(uint256)": {
        "details": "See {IERC721-getApproved}."
      },
      "isApprovedForAll(address,address)": {
        "details": "Returns if the `operator` is allowed to manage all of the assets of `owner`. See {setApprovalForAll}"
      },
      "name()": {
        "details": "See {IERC721Metadata-name}."
      },
      "owner()": {
        "details": "Returns the address of the current owner."
      },
      "ownerOf(uint256)": {
        "details": "See {IERC721-ownerOf}."
      },
      "renounceOwnership()": {
        "details": "Leaves the contract without owner. It will not be possible to call `onlyOwner` functions. Can only be called by the current owner. NOTE: Renouncing ownership will leave the contract without an owner, thereby disabling any functionality that is only available to the owner."
      },
      "safeTransferFrom(address,address,uint256)": {
        "details": "See {IERC721-safeTransferFrom}."
      },
      "safeTransferFrom(address,address,uint256,bytes)": {
        "details": "See {IERC721-safeTransferFrom}."
      },
      "setApprovalForAll(address,bool)": {
        "details": "See {IERC721-setApprovalForAll}."
      },
      "supportsInterface(bytes4)": {
        "details": "See {IERC165-supportsInterface}"
      },
      "symbol()": {
        "details": "See {IERC721Metadata-symbol}."
      },
      "transferFrom(address,address,uint256)": {
        "details": "See {IERC721-transferFrom}."
      },
      "transferOwnership(address)": {
        "details": "Transfers ownership of the contract to a new account (`newOwner`). Can only be called by the current owner."
      }
    },
    "version": 1
  },
  "userdoc": {
    "kind": "user",
    "methods": {},
    "version": 1
  }
}